:020000040800F2
:10000000E8040020010100089B1900083F180008BF
:100010009919000849030008B91E000800000000F3
:10002000000000000000000000000000951A000819
:100030005903000800000000931A0008E11A0008A4
:100040001B0100081B0100081B0100081B01000820
:100050001B0100081B0100081B0100081B01000810
:100060001B0100081B0100081B0100081B01000800
:100070001B0100081B0100081B0100081B010008F0
:100080001B0100081B0100081B010008AD1E000831
:100090001B0100084D0300081B0100081B0100089C
:1000A0001B0100087D1B00081B0100081B01000844
:1000B0001B0100081B0100081B0100081B010008B0
:1000C0001B0100081B0100081B0100081B010008A0
:1000D0001B010008A11E00081B0100081B010008ED
:1000E0001B0100081B0100081B010008DFF80CD0F1
:1000F00000F018F900480047551F0008E8040020E8
:100100000648804706480047FEE7FEE7FEE7FEE7B1
:10011000FEE7FEE7FEE7FEE7FEE7FEE7351B000829
:10012000ED000008D2B201E000F8012B491EFBD21D
:1001300070470022F6E710B513460A4604461946F2
:10014000FFF7F0FF204610BDF0B480EA0102D40FA3
:100150004200B2EB410F02D20246084611464A0065
:1001600042D0C30DDDB2C1F3C752AD1A202D35DA2E
:10017000C1F3160141F4000204B15242C5F1200658
:1001800002FA06F12A411044B3EBD05F23D0C4B188
:10019000012DA0EBC35009DCF0BC4FF0004202EA95
:1001A000C352DBB200F5000000F08DB8400000F152
:1001B000807000EBC350A0F1807040EAD17049001C
:1001C00009E0490841EAC071A0EBC35000F5000006
:1001D000400800EBC350F0BC00F06CB86142012253
:1001E00002EB4101001BF6E7F0BC704781F00041D3
:1001F000AAE780F00040A7E780EA010210B502F00C
:100200000043400022D04A001FD0010E01EB1261D2
:10021000C0F35600C2F3560240F4000042F400025C
:10022000A0FB022000047F39140400D0401C50EAD7
:10023000124001D44000491EC2B20C0604EBD0109B
:10024000401C4008802A02D003E0002010BD20F0AE
:100250000100002900DA0020184310BDC10F80EA18
:10026000E0700844CA079623002100F02CB800F083
:10027000004220F00040C10DC0F3160040F4000021
:100280007F2901DA00207047962903DCC1F196012D
:10029000C84001E096398840002AF4D040427047B7
:1002A000002801DBC0F10040002901DBC1F1004161
:1002B000884270470029A8BF7047401C490008BF0A
:1002C00020F00100704710B4B0FA80FC00FA0CF086
:1002D00050EA010404BF10BC704749B1CCF12004BE
:1002E00021FA04F411FA0CF118BF0121214308434B
:1002F000A3EB0C01CB1D4FEA00614FEA102042BF77
:10030000002010BC704700EBC35010440029A4BF6C
:1003100010BC7047401C490008BF20F0010010BC11
:1003200070470000064C074D06E0E06840F001030E
:1003300094E8070098471034AC42F6D3FFF7DAFE92
:10034000B41F0008D41F0008FEE70000014800F0B9
:1003500012B9000018000020704770470B4A10B512
:1003600000EB400302EB830032F8234044810C8809
:1003700064BA22F823404A8852BA82808A8852BAE4
:10038000C280C98849BA017210BD0000CC000020AB
:100390000B4A10B500EB400302EB830032F8234018
:1003A00044810C8864BA22F823404A8852BA828079
:1003B0008A8852BAC280C98849BA017210BD000049
:1003C000D8000020F0B590F820500468A468012DF2
:1003D00005D0022D03D0416A41F4802153E014F08E
:1003E000406F01D1E5004BD5C4F30164022C03D961
:1003F000416A41F4000146E00125A5401D608D6879
:100400004FF4C0739DB1CE6835434E6845EAC605CA
:10041000066803EB0417F5514FF4C275076805EB46
:1004200004150E697E51097D012905D009E00E8869
:10043000CD6845EA4655EBE701684E5946F48076AB
:100440004E511179D2F805504FF4C67641EA052590
:10045000016806EB04168D511178D2F801204FF493
:10046000C47541EA0221026805EB04155151006888
:1004700003EB0411425842F0010242500020F0BD4B
:10048000416A41F4001141620120F0BD704730B56E
:1004900090F82040012C05D0022C03D0416A41F491
:1004A00080215DE00468002955D02469A40754D058
:1004B0004FF4D874056804EB01142D5915F00405A8
:1004C000956005682D594ED0ED08556005682C598A
:1004D00004F00204D4604FF4DA74056804EB0114EC
:1004E0002D5905F00F05156105682D59C5F3072530
:1004F000956105682C59240C54614FF4DC72046832
:1005000002EB0112A4581C700468A458240A5C7001
:100510000468A458240C9C700468A258120EDA7067
:100520004FF4DE72046802EB0112A4581C710468D7
:10053000A458240A5C710468A458240C9C710468B3
:10054000A258120EDA71006881B1016941F02001F0
:100550000161002030BDE468A8E7416A41F4001160
:100560004162012030BD6D0D1560AFE7C16841F0FB
:100570002001C160EDE72DE9F05F05460068002429
:100580004669D0F804908768D0F80CB0D0F810A075
:10059000D0F81880F10748D0F90714D00121816004
:1005A000B80703D5284600F0DFF90CE0780702D53C
:1005B0004FF4006407E0380702D54FF4805402E09E
:1005C000284600F0D0F9F80516D529684FF4807058
:1005D0008860B80503D5284600F0C8F90CE0780516
:1005E00002D544F4005407E0380502D544F48044B1
:1005F00002E0284600F0B9F9F80316D529684FF44F
:1006000080308860B80303D5284600F0B1F90CE0CB
:10061000780302D544F4004407E0380302D544F4DB
:10062000803402E0284600F0A2F9300707D55FEADF
:10063000CB6004D52968102044F40074C8607007AA
:100640004FF0080707D55FEA0B7004D52868C7602C
:10065000284600F061F9B00706D52868C068800711
:1006600002D0284600F05AF9700607D55FEACA6042
:1006700004D52968102044F480640861B00607D5C9
:100680005FEA0A7004D528680761284600F068F917
:10069000F00606D528680069800702D0284600F0D9
:1006A00060F9B00308D55FEAC96005D52968102054
:1006B0004860284600F056F9F00307D55FEA097054
:1006C00004D528684760284600F053F9300446D521
:1006D0005FEA497040D5F00504D55FEAC87001D0E3
:1006E00044F00104B00504D55FEA887001D544F0F8
:1006F0000204700504D55FEA487001D544F0040493
:10070000300529D518F0700F26D008F07000402869
:1007100015D006DC102809D020280AD0302816D1A0
:100720000AE050280ED0602811D10EE044F00804F1
:100730000DE044F010040AE044F0200407E044F027
:10074000400404E044F0800401E044F4807428682C
:10075000816921F070018161296804204860002CC2
:1007600005D0686A204368622846FFF78FFEBDE81F
:10077000F09F70B5040003D094F8200010B104E09D
:10078000012070BD204600F081F82068016821F04A
:100790000201016000F036FA0546052604E000F08B
:1007A00031FA401B0A2811D8206840688007F6D427
:1007B0002068016841F00101016000F023FA05465C
:1007C0000BE000F01FFA401B0A2806D9606A40F4CB
:1007D0000030606284F82060D2E720684068C0077B
:1007E000EFD0207E0128206801683DD021F08001F3
:1007F0000160607E01282068016838D021F0400146
:100800000160A07E01282068016833D021F020011A
:100810000160E07E0128206801682ED041F01001BF
:100820000160207F01282068016829D021F008019B
:100830000160607F01282068016824D021F0040154
:100840000160D4E902010843D4E9041211430843CA
:100850006168491E08432168C86100206062012068
:1008600084F82000002070BD41F08001C0E741F015
:100870004001C5E741F02001CAE721F01001CFE7B0
:1008800041F00801D4E741F00401D9E710B586B082
:100890000021009101910291039100681B49884257
:1008A00032D11B48C16941F00071C161C16901F0D9
:1008B00000710491816941F0040181618069154CE6
:1008C00000F0040004904FF4006000906946204658
:1008D00000F09CF8A01400900220019003200390E7
:1008E0006946204600F092F800220121132000F012
:1008F000F5F9132000F0E4F900220121152000F0A1
:10090000EDF9152000F0DCF906B010BD00640040E0
:1009100000100240000801407047000000B50E4979
:1009200089B0884211D107AB6A460021FFF7AFFDBD
:10093000009B0020094AA3F5007307A9013B06D0DC
:10094000042B02D11070FFF709FD09B000BD5070F3
:10095000FFF71EFDF9E7000018000020020000204C
:1009600070477047704770477047704770477047CF
:100970007047704710B590F821100024022903D069
:100980000421816301243DE001680A6822F00E021F
:100990000A6001680A6822F001020A601A4A0168C6
:1009A000914201D1012121E0174A1432914201D133
:1009B00010211BE0144A2832914201D1891515E01B
:1009C000114A3C32914201D189140FE00E4A503253
:1009D000914202D14FF4803108E00B4A64329142D7
:1009E00002D14FF4801101E04FF08071064A083ABD
:1009F0005160012180F82110002180F82010416B06
:100A000001B18847204610BD080002402DE9F84F8B
:100A1000DFF8B891002409F1040A0AF1040B234617
:100A20000F270BF1040EC9E00125A5402A40AA4278
:100A30007DD1674ED1F804C0ACEB0608B44532D086
:100A400014DCBCF1030F3AD009DCBCF1000F2AD052
:100A5000BCF1010F1CD0BCF1020F31D11DE0BCF183
:100A6000110F17D0BCF1120F2AD119E0B8F5881F69
:100A700019D006DCB8F5803F15D0B8F5801F1FD11E
:100A800011E0B8F5001F0ED0B8F5041F18D10AE028
:100A9000CB6815E0CB681B1D12E0CB6808330FE074
:100AA000CB680C330CE08B682BB1012B4FF00803A3
:100AB00003D0456104E0042302E0056100E0002367
:100AC000FF2A01D8064601E000F104064FEA84053A
:100AD00001D9A5F12005D6F8008007FA05FC28EA1F
:100AE0000C0803FA05F548EA0508C6F800804D68C9
:100AF000ED0062D5374DAE6946F00106AE61AD69D5
:100B000024F0030605F001050095334D06EB050CB6
:100B1000DCF80850A607360F07FA06F825EA08059C
:100B2000DFF8B880404503D14FF0000817E044E0FB
:100B3000DFF8AC80404502D14FF001080FE0DFF84C
:100B4000A480404502D14FF0020808E0DFF8988009
:100B5000404502D14FF0030801E04FF0040808FAC5
:100B600006F848EA0508CCF808804D68D9F8006016
:100B7000ED034D4601D5164300E096432E604D68C7
:100B8000DAF80060AD03554601D5164300E0964300
:100B90002E604D68DBF80060ED025D4601D516431E
:100BA00000E096432E604D68DEF80060AD027546A9
:100BB00001D5164300E096432E60641C0D682A465A
:100BC000E5407FF431AFBDE8F88F0000000401403C
:100BD0000000111000100240000001400008014018
:100BE000000C01400010014000140140C2680A429C
:100BF00001D041617047016170470AB101617047DE
:100C00000904FBE7014880687047000004000020E9
:100C10000248816802781144816070470400002016
:100C2000074810B5016841F010010160032000F091
:100C300075F8002000F006F800F024F8002010BD40
:100C40000020024070B50D4D04464FF47A712878AB
:100C5000B1FBF0F00A490968B1FBF0F000F0ECFAE2
:100C600048B9102C07D200222146501E00F036F859
:100C700000206C6070BD012070BD000004000020E9
:100C8000100000200C4808B5816941F00101816124
:100C9000816901F001010091C16941F08051C16198
:100CA000C06900F0805000900448416821F0E06184
:100CB00041F00071416008BD001002400000014099
:100CC000002809DB00F01F0201219140400980004B
:100CD00000F1E020C0F8001170470000F0B40E4BA6
:100CE0001B680C46C3F30223C3F10705042D00D98A
:100CF0000425191D072901D2002300E0DB1E01266F
:100D000006FA05F1491E214099409E40761E164084
:100D10003143F0BC01F0DAB80CED00E0064900F018
:100D2000070208684FF6FF03184040EA0220034A12
:100D300010430860704700000CED00E00000FA0569
:100D40002DE9F0470F46050061D0434E306800F0B2
:100D50000700B84209D2306820F0070038433060FD
:100D6000306800F00700B84251D128683B4C810739
:100D700012D5400703D5606840F4E06060602878D1
:100D8000000703D5606840F4605060606068A9683F
:100D900020F0F000084360602878C00728D0686819
:100DA000012810D02168022810D0890700292EDAE6
:100DB000616821F0030101436160FFF723FF804672
:100DC00041F288390DE021688903EFE78901EDE7F9
:100DD000FFF718FFA0EB0801494502D90320BDE841
:100DE000F0876068696800F00C00B0EB810FEFD10C
:100DF000306800F00700B8420BD9306820F00700D7
:100E000038433060306800F00700B84201D001205C
:100E1000E5E72878400705D56068E96820F4E060D8
:100E2000084360602878000706D56068296920F4C7
:100E3000605040EAC100606000F038F86168084A1C
:100E4000C1F30311515CC8400649086006480068B8
:100E5000FFF7F8FE0020C2E7002002400010024029
:100E60009C1F0008100000200800002004480549CD
:100E700000684968044AC1F30221515CC8407047C8
:100E80001000002000100240AC1F00080448054973
:100E900000684968044AC1F3C221515CC8407047E8
:100EA0001000002000100240AC1F000812A185B005
:100EB0000FC98DE80F0014A0144A0068049051680F
:100EC000134801F00C03042B10D0082B0ED1C1F3F2
:100ED0008343C9031DF803000AD5516804AAC1F36E
:100EE0004041515C0A4A5043B0FBF1F005B07047F5
:100EF00008494843FAE70000020304050607080909
:100F00000A0B0C0D0E0F1010010200000010024021
:100F100000127A0000093D002DE9F84F040070D05E
:100F20002078C04DC00749D06868C0F3810001280F
:100F300007D06868C0F38100022809D16868C0033F
:100F400006D52868800339D560680028E7D035E0E9
:100F50006068B0F5803F0BD010B1B0F5A02F11D074
:100F6000286820F480302860286820F4802002E07F
:100F7000286840F480302860606890B1FFF742FE36
:100F800006460AE0286840F480202860F0E700BFA9
:100F9000FFF738FE801B642873D828688003F7D5D4
:100FA0000CE0FFF72FFE064605E000BFFFF72AFE24
:100FB000801B6428F0D828688003F7D420789A4EE4
:100FC00080074FF001094FF0000839D5686810F02C
:100FD0000C0F07D06868C0F38100022809D1686847
:100FE000C00306D42868800714D52069012808D1D9
:100FF00010E02069B0B1C6F80090FFF703FE074685
:1010000005E00AE1FFF7FEFDC01B0228C4D82868EE
:101010008007F7D52868616920F0F80040EAC10030
:1010200028600DE0C6F80080FFF7ECFD074604E0FD
:10103000FFF7E8FDC01B022823D828688007F7D4F3
:10104000207800072CD57948A169D9B1C0F8009063
:10105000FFF7D8FD074604E0FFF7D4FDC01B0228C8
:101060000FD8686A8007F7D571484FF4FA510068C5
:10107000B0FBF1F0009000BF0098411E0091FAD241
:101080000EE080E0C0F80080FFF7BCFD074604E0FA
:10109000FFF7B8FDC01B022875D8686A8007F7D42F
:1010A0002078400760D5E8690027C00008D4E869C7
:1010B00040F08050E861E869012700F0805000901E
:1010C0005C480168C90513D40168834641F4807106
:1010D0000160FFF797FD824606E000BFFFF792FD33
:1010E000A0EB0A0064284ED8DBF80000C005F5D557
:1010F000E06801280AD008B1052813D0286A20F03A
:1011000001002862286A20F0040002E0286A40F00A
:1011100001002862E06841F2883B98B1FFF772FD58
:1011200082460BE0286A40F004002862EEE700BF28
:10113000FFF768FDA0EB0A0159455AD8286A8007D5
:10114000F6D50CE0FFF75EFD824605E0FFF75AFD9D
:10115000A0EB0A0159454CD8286A8007F6D41FB184
:10116000E86920F08050E861E06988B36968C1F3FC
:101170008101022944D00228C6F8608004D0FFF71C
:1011800041FD044638E034E0FFF73CFD074604E04B
:10119000FFF738FDC01B02282BD828688001F7D440
:1011A000206AB0F5803F05D16868A16820F400305E
:1011B00008436860D4E908010843696821F47411A0
:1011C00008436860C6F86090FFF71CFD044606E01F
:1011D00025E000BFFFF716FD001B022809D828688C
:1011E0008001F7D51BE000BFFFF70CFD001B0228B4
:1011F00002D90320BDE8F88F28688001F4D40EE0FE
:101200000128F7D06868226A00F48031914204D145
:10121000616A00F47010884201D00120EAE70020E2
:10122000E8E7000000100240000042428004424211
:10123000100000200070004010B5401EB0F1807F0B
:1012400001D3012010BD4FF0E02460610F21601731
:1012500000F03CFE0020A06107202061002010BDAE
:101260007047704770B590F83C20012A19D00124CE
:1012700000F83C4F0222427050F83C3C5A689D688E
:1012800022F070060A684968324325F08005294338
:101290005A6050F83C2C916044700021017008465F
:1012A00070BD022070BD10B5040003D094F83D005D
:1012B00010B107E0012010BD002084F83C0020465A
:1012C00000F00CF8022084F83D00211D206800F099
:1012D0005BFC012084F83D00002010BD08B50068CB
:1012E0000B49884212D10B48816941F40061816148
:1012F0008069002200F40060009003211920FFF7AC
:10130000EDFCBDE808401920FFF7DABC08BD00007D
:10131000002C01400010024070B5044690F83C00DB
:10132000012817D0012584F83C50022084F83D00A4
:101330002068826822F0770222F47F428260086887
:10134000502830D00DDC20284DD005DC98B3102873
:101350003BD148E0022070BD302844D0402834D131
:1013600039E0602828D0702806D0B0F5805F2CD0F6
:10137000B0F5005F29D10AE0CB68D1E901212068EE
:1013800000F038FC2068816841F0770109E0CB6803
:10139000D1E90121206800F02DFC2068816841F42A
:1013A0008041816011E0CA684968206800F034FC1F
:1013B0005021206807E016E0CA684968206800F0FC
:1013C0003CFC6021206800F01FFC84F83D500020A8
:1013D00084F83C0070BDCA684968206800F01CFCB5
:1013E00040212068EFE7226801461046EBE770478E
:1013F00070B50446006801694FF00005C9438907CC
:1014000015D4C168C943890711D4E91E01610120BF
:101410002077206880698007204602D0FFF7E7FF29
:1014200004E000F098F8204600F096F82577206850
:101430000169C943490717D4C168C943490713D48F
:101440006FF004010161022020772068806910F4A8
:10145000407F204602D0FFF7CAFF04E000F07BF88F
:10146000204600F079F8257720680169C94309070B
:1014700016D4C168C943090712D46FF0080101618D
:10148000042020772068C0698007204602D0FFF73B
:10149000AEFF04E000F05FF8204600F05DF825772D
:1014A00020680169C943C90617D4C168C943C90680
:1014B00013D46FF010010161082020772068C06903
:1014C00010F4407F204602D0FFF791FF04E000F0C7
:1014D00042F8204600F040F8257720680169C943AA
:1014E000C90708D1C168C943C90704D1891E016170
:1014F000204600F033F820680169C943090609D481
:10150000C168C943090605D46FF080010161204616
:10151000FFF7A6FE20680169C943490609D4C168DE
:10152000C943490605D46FF040010161204600F02F
:101530002BF820680169C94389060BD4C168C943E7
:10154000890607D46FF0200101612046BDE8704094
:10155000FFF787BE70BD704770470000074A084913
:10156000904202D10888401C08800888642804D36F
:101570004FF400510348FFF739BB7047400000208B
:1015800000000020001001407047704770B50268ED
:1015900004461068D168536910F00F0F51D003F062
:1015A000010501F4907635435DD0C20705D0CA0528
:1015B00003D5E26B42F00102E263420705D5DA0788
:1015C00003D0E26B42F00202E263820705D5DA073C
:1015D00003D0E26B42F00402E263020705D5DA07AA
:1015E00003D0E26B42F00802E263E26B002A34D0DF
:1015F000800604D5880602D5204600F046FB206808
:101600004069E16BC0F3801001F0080101432046FE
:1016100024D000F02CFB2068416949061AD54169A5
:1016200021F040014161606BA0B11B494163606BD7
:10163000FFF7A0F9002810D0606B416BBDE8704047
:10164000084783060FD58B060DD52046BDE87040B0
:1016500000F01BBB2046FFF798FF70BDFFF795FF1A
:101660000020E06370BD030606D50B0604D52046B6
:10167000BDE8704000F0B0BB4006F3D54806F1D598
:10168000D168204621F04001D160202184F8391032
:1016900000F0D4F870BD00005F1C000870B50400B5
:1016A00004D094F83900002510B106E0012070BD87
:1016B00084F83850204600F023F8242084F83900BC
:1016C0002068C16821F40051C160204600F028FB69
:1016D0002068016921F4904101612068416921F08D
:1016E0002A0141612068C16841F40051C160E5638D
:1016F000202084F8390084F83A00002070BD0000F2
:1017000030B585B0002400940194029403940068DD
:10171000184988422CD11848816941F4804181617F
:10172000816901F480410491816941F00401816182
:101730008069124D00F0040004904FF40070009096
:10174000022001900320039069462846FFF75EF9C6
:101750002815CDE90004694628460294FFF756F99A
:10176000002203212520FFF7B9FA2520FFF7A8FA68
:1017700005B030BD003801400010024000080140B3
:1017800070472DE9F843044690F839001F46164685
:101790000D46202850D1A5B19EB194F838000128FB
:1017A0004AD0012084F838004FF00008C4F83C808B
:1017B000212084F83900FFF725FAA6848146E684C3
:1017C00026E00120BDE8F883E08C401EE084A0689C
:1017D0004B46B0F5805F4FF000024FF0800120468D
:1017E000009703D000F029FBE8B90DE000F025FBDD
:1017F000C8B928882168C0F308004860206908B18A
:101800006D1C05E0AD1C03E0216815F8010B486074
:10181000E08C0028D8D14B4600224021204600977A
:1018200000F00BFB08B10320CCE7202084F839003E
:1018300084F838800020C5E70220C3E77047FEE740
:10184000104810B50E4901600321416000214FF49A
:10185000E0228160C0E903124FF400124261017678
:10186000012242768176C17601774177FEF781FFCA
:10187000002803D0BDE81040FEF76FBD10BD00008A
:10188000006400401800002070B586B0002418489D
:101890000094019402940394816941F010018161E4
:1018A000816901F010010491816941F02001816199
:1018B000816901F020010491816941F00401816195
:1018C00080690C4E00F004004FF400550490002293
:1018D00029463046FFF791F901200095CDE9010432
:1018E0000220039069463046FFF790F806B070BDBD
:1018F000001002400010014010B586B000241748C7
:101900000094019402940394049413490594016093
:101910004721C0E9011440F2E731C0E903144461F2
:101920008461FFF7C0FC08B1FEF717FD4FF480504B
:10193000009069460948FFF7EFFC08B1FEF70DFD7E
:10194000049404A905480594FFF78CFC002801D0F5
:10195000FEF703FD06B010BD002C01404000002042
:101960000C4810B50A4901604FF4E1314160002193
:1019700081600C22C160C0E904128161C161FFF77E
:101980008DFE002803D0BDE81040FEF7E6BC10BD78
:101990000038014080000020FEE7704700B589B0A4
:1019A000002206920792042802D240F2FF1001E0C2
:1019B00040F2FF20009002920820CDE90320080A9F
:1019C0008DF818008DF81910012306AA69460248FF
:1019D000FEF7F8FC09B000BD1800002010B50C6837
:1019E00004604C68446089688160C0E9082310BDC8
:1019F0002DE9F041044646698661C4E903120B46AD
:101A000011461846FEF7F2FB05466061294620683C
:101A1000FEF7F2FBA06229466068FEF7EDFBE16A83
:101A2000FEF792FB0746E06231462846FEF7DEFBF2
:101A30000146E061A068FEF7DFFB20633846616A7B
:101A4000FEF72EFC606A08D380F00040E16AFEF7E2
:101A500027FC03D2606A80F00040E062D4E90A010A
:101A6000FEF772FB216BFEF76FFB6063216AFEF7E6
:101A700017FC206A0BD380F00040616BFEF710FC6E
:101A800002D3606BBDE8F081206A80F000406063A3
:101A9000F8E770477047000010B51446B1F904002C
:101AA000FEF7DCFB02462046BDE810400149FFF787
:101AB0009FBF000000007A440EB500200090019006
:101AC0000290012000F03EFA044900231A464860C3
:101AD00088686946FFF782FF0EBD0000C000002045
:101AE000FFF796B830B58FB028216846FEF721FB86
:101AF00014210AA8FEF71DFB01210804CDE90010FE
:101B00000024029402250491CDE907504FF4E0101F
:101B100009906846FFF700FA0F20CDE90A05680230
:101B2000CDE90C4002210AA80E94FFF709F90FB085
:101B300030BD00000D48016841F0010101604168BD
:101B40000B4A1140416001680A4A11400160016876
:101B500021F480210160416821F4FE0141604FF4CD
:101B60001F0181600449C0030860704700100240F3
:101B70000000FFF8FFFFF6FE08ED00E00148FFF768
:101B800037BC000040000020F0B50268164B174C2F
:101B9000174D4FF08047984205D0B84203D0A0427D
:101BA00001D0A84203D122F070064A68324398421D
:101BB00005D0B84203D0A04201D0A84203D122F4FC
:101BC0004074CA6822434C6922F0800222430260BA
:101BD0008A68C2620A688262984201D10969016317
:101BE00001214161F0BD0000002C014000040040D3
:101BF0000008004010B5846842EA032224F47F44C0
:101C00000A432243826010BD826822F070020A43B8
:101C100042F007018160704710B5036A046A24F03E
:101C200001040462846924F0F00444EA021423F0FD
:101C30000A020A438461026210BD10B5036A23F0F0
:101C4000100303628369046A23F4704343EA023297
:101C500024F0A00343EA01118261016210BD10B5B6
:101C6000406A0021C185C184FFF78FFC10BD016867
:101C7000CA6822F49072CA6001684A6922F00102BF
:101C80004A61202180F83A10704710B590F83A1058
:101C9000222901D0022010BD8168B1F5805F11D0EA
:101CA0000169002901681FD0496801F07F03816A3A
:101CB0004A1C82620B70C18D491E0904090CC18542
:101CC00018D02BE00269816A002A0268526805D0A8
:101CD000D2B20A80816A491C8162ECE7C2F3080231
:101CE0000A80816A891CF7E74A68816A4B1C836213
:101CF0000A70E0E70168CA6822F02002CA60016841
:101D0000CA6822F48072CA6001684A6922F001023E
:101D10004A61202180F83A10FFF732FD002010BD03
:101D20002DE9F041044600680169E26821F4405160
:101D3000114301612169A068084361690843216872
:101D4000CA6841F20C639A430243CA602068416941
:101D5000A26921F44071114341611E492068642544
:101D60003226884202D1FFF791F801E0FFF77EF8B2
:101D700000EBC00101EB001160686FF018078000F4
:101D8000B1FBF0F2B2FBF5F2B1FBF0F37A4303EBF7
:101D90008202B1FBF0F306EB0212B2FBF5F2B3FBE9
:101DA000F5F302F0F00202EB0312B1FBF0F3B1FB2A
:101DB000F0F0B0FBF5F0784303EB800006EB001089
:101DC000B0FBF5F0216800F00F0010448860BDE81A
:101DD000F08100000038014090F83910212901D02D
:101DE000022070478168B1F5805F016A0BD04A1C00
:101DF0000262026809785160C18C491E0904090C0D
:101E0000C1840ED017E009880268C1F3080151604F
:101E100001690029016A02D0491C0162ECE7891CB2
:101E2000FBE70168CA6822F08002CA600068C168E6
:101E300041F04001C160002070472DE9F041984613
:101E400017460E460446069D1DE0681C1BD02DB1AA
:101E5000FEF7D8FEA0EB0800A84214D92068C1689C
:101E600021F4D071C1602068416921F00101416114
:101E7000202084F8390084F83A00002084F83800E3
:101E80000320BDE8F0812068006836EA000004D035
:101E90000020B842D9D00020F3E70120F9E7000084
:101EA0000148FFF773BB0000800000200148FEF7E7
:101EB00062BB000018000020FEE70000014A024952
:101EC00000F023B82D1F0008140000200907090E98
:101ED000002804DB00F1E02080F80014704700F0D7
:101EE0000F0000F1E02080F8141D704702E008C8E0
:101EF000121F08C1002AFAD170477047002001E084
:101F000001C1121F002AFBD170472DE9F04116468E
:101F10000F460446002503E03946B047641C6D1C9B
:101F200020780028F8D12846BDE8F08113B54FF697
:101F3000FF73012269460248FFF723FC00981CBD8D
:101F400080000020024900EB400001EB8000704758
:101F5000CC000020FEF764FEFFF7C4FDFFF794FC01
:101F6000FFF76EFCFFF7C8FCFFF7FAFCFFF7A4FDD4
:101F7000074C00BF94E80700FFF78EFDFEF777F9E6
:101F800001B20120FFF70AFD02A0FFF797FFF1E77A
:101F9000C0000020546573740D0A000000000000AA
:101FA0000000000001020304060708090000000009
:101FB00001020304D41F00080000002018000000E4
:101FC000EC1E0008EC1F000818000020D0040000E0
:101FD000FC1E0008000000000100000010000000CE
:0C1FE000000000000024F40000000000DD
:04000005080000ED02
:00000001FF
